:100000000C94E1010C94F10C0C9428020C9428023D
:100010000C9428020C9428020C9428020C942802B8
:100020000C9428020C9428020C94B91E0C948D1F79
:100030000C94AF190C9428020C9428020C942802FA
:100040000C9428020C9428020C9428020C94280288
:100050000C9428020C94061A0C9428020C94280282
:100060000C9428020C9428020C9428020C94280268
:100070000C9428020C9428020C9428020C94280258
:100080000C9428020C9428020C9428020C94280248
:100090000C9428020C9428020C9428020C94280238
:1000A0000C9428020C9428020C94280200000000F2
:1000B0000000000029003A003B003C003D003E00EB
:1000C00000000000000000001E001F0020002100B2
:1000D0002200230000000000000000003500140092
:1000E0001A000800150017000000000000000000C2
:1000F0002B0004001600070009000A0000000000A1
:100100000000000039001D001B000600190005005A
:100110000000000000000000E100E0000151E300E9
:10012000E2002C003F004000410042004300440038
:10013000450046004700480024002500260027000F
:100140002D002E002A0049004A004B0018000C0028
:10015000120013002F00300031004C004D004E0003
:100160001C000D000E000F003300340028000000BA
:10017000000000000B0010003600370038000000BF
:10018000E50000005200000011002C000000E60015
:10019000E7006500E400500051004F00000000003F
:1001A0000000000001000100010001000100010049
:1001B000000000000000000001000100010001003B
:1001C000010001000000000000000000010001002B
:1001D000010001000100010000000000000000001B
:1001E0000100010001000100010001000000000009
:1001F00000000000010001000100010001000100F9
:1002000000000000000000000100010001000100EA
:100210000100AE0001000100010001000100010029
:1002200001000100010001000100010001000100C6
:1002300001000100010001000100010001000100B6
:1002400001000100010001000100010001000100A6
:100250000100010001000100010001000100000097
:100260000000000001000100010001000100000089
:1002700001000000A90000000100010000000100D1
:10028000010001000100AC00AA00AB0010037300E4
:1002900070006C006900740038003900000016031B
:1002A0006A007500720061007300730069006300EA
:1002B0003700330000000403090409023B00020177
:1002C00000A0FA0904000001030101000921110145
:1002D00000012240000705810308000A090401000B
:1002E0000103000000092111010001227B00070524
:1002F000820320000A1201100100000008EDFE0038
:100300000001000102000105010902A101850209A5
:1003100001A1000509190129081500250195087595
:100320000181020501093009311581257F9502758A
:1003300008810609381581257F9501750881060514
:100340000C0A38021581257F950175088106C0C009
:1003500005010980A101850319012AB700150126AD
:10036000B700950175108100C0050C0901A1018538
:100370000419012AA002150126A002950175108119
:1003800000C005010906A101050719E029E71500CC
:100390002501950875018102950175088101050700
:1003A000190029FF150026FF009506750881000534
:1003B00008190129059505750191029501750391AB
:1003C00001C011241FBECFEFDAE0DEBFCDBF04B6FF
:1003D00003FE27C08091E0029091E102A091E20229
:1003E000B091E3028730904BA740B04BD1F410920C
:1003F000E0021092E1021092E2021092E30214BEB7
:1004000084B7877F84BF0FB6F894A8958091600069
:10041000886180936000109260000FBEE0E0F8E316
:10042000099511E0A0E0B1E0EEECF3E402C0059024
:100430000D92A03AB107D9F722E0A0EAB1E001C0DD
:100440001D92A03EB207E1F70E94F51B0C94C1215A
:100450000C94000081E0089581E008950C942C0232
:1004600008950C9430021F93CF93DF9300D000D0F7
:100470000F92CDB7DEB749835A836B833091F20177
:1004800089819A8131111DC06623B9F02223A9F018
:100490000E94EF16182F682F89819A810E949B165F
:1004A00069817A81812F0F900F900F900F900F909C
:1004B000DF91CF911F910C94F1020E94C716182F63
:1004C000EFCF0E94EF1669817A81EDCFFC01262FD4
:1004D000408151816281738184810C943302CF9376
:1004E000DF93EC0160E00E946602BE01DF91CF91D4
:1004F0000C9431020E94F1040C9416050C94190519
:1005000008950E947D120E9480022FEF84E39CE0F8
:10051000215080409040E1F700C000000C946B1A1D
:100520000F931F93CF93DF938C0161E00E946602CB
:10053000EC01B8010E942E028823A9F1B801CE0176
:100540000E944A0A882379F1B801CE010E949C0AD0
:10055000882349F1B801CE010E94BF0B882319F10D
:10056000F8018281882361F0CB35FDE5DF0721F1B9
:1005700070F4C115ECE5DE07A1F0CF3DDC45C9F014
:10058000C801DF91CF911F910F910C942A02CC35B5
:100590008DE5D807A1F0CD35DD4591F70E9496177E
:1005A000EFCF0E94810280E0DF91CF911F910F91E8
:1005B00008950E940219F7CF0E949F17E1CF0E9471
:1005C000A217DECF08950C94E20281E008950C9406
:1005D000E502CF93C82F0E94E3028C2FCF910C9499
:1005E000E702972F70E02AE0929F600D711D1124A1
:1005F000FB0198E7899FE00DF11D1124EE0FFF1F0D
:10060000E455FF4F859194910895CF93DF930E9415
:10061000F1020E94FF03EC01811521E5920708F029
:1006200042C0811530E5930708F09DC0883E9105D2
:1006300030F5803E910508F092C0883A910588F423
:10064000853A910508F084C08130910509F487C08E
:10065000009709F484C0049708F081C0D0E0C0E09E
:100660007EC08F3B9105D0F7C85AD0E0CC0FDD1F7C
:10067000C25CDE4F0990D881C02DD46470C0811552
:10068000904250F4C11581E0D80708F068C0CD3E13
:10069000D10520F3D06563C0C11590E4D907F0F20D
:1006A000DF70D06A5CC0811525E5920700F58115E1
:1006B00034E5930708F08BC0811543E5940708F0F3
:1006C00073C0C11582E5D80708F469C0CE018370F4
:1006D000992721E030E002C0220F331F8A95E2F70C
:1006E000C695C69580E2C89FE001112454C0C1158B
:1006F00099E5D907A8F4C11528E5D20708F06CC020
:10070000C11536E5D30708F0A9CF8C2F0E949604B7
:10071000C82FD0E0DC2FCC27CC27DF71D0621FC0E0
:10072000C1154AE5D40708F45CC0CE019056811586
:10073000904208F093CF8D2F8F710E94960490E025
:10074000982F882788279F719C012C2BE901E6CFE1
:10075000C55AD0E0C459DE4FC881D0E0D064CE0184
:10076000DF91CF910895E4E096958795EA95E1F7BA
:1007700083702C2F26952695237040E2249F9001AC
:100780001124382B8C2F8370C1E0D0E002C0CC0F35
:10079000DD1F8A95E2F7C22BD32BDC68E0CFDC2F7C
:1007A000CC27C16FD06ADBCF8370992721E030E07E
:1007B00002C0220F331F8A95E2F7C695C69590E2D4
:1007C000C99FE0011124C22BD32BDA68C8CFD82FE0
:1007D000CC27C46FD06AC3CFDC2FCC27C06FD06AC0
:1007E000BECF8C2F8F700E94960434E0D695C795AB
:1007F0003A95E1F7CF709C2FEC01D069B0CF8238E9
:100800009105B1F1B0F48133910509F475C048F454
:100810008932910509F469C08A32910509F473C0DF
:1008200008958533910509F459C08933910501F183
:100830000895833E9105A9F138F4803E9105F9F0C1
:10084000823E910549F10895863E9105A9F1873EC2
:100850009105C9F1843E910519F52091980221FF77
:100860001FC08091970284FD14C087EE90E0089528
:10087000209197022370A1F080EE90E008952091DE
:10088000970220FD47C03091980230FF09C024FF35
:1008900044C090E080E004C02091970222FDF7CF91
:1008A00008952091970222FD3BC03091980230FDBF
:1008B000E3CF24FFF5CFEDCF2091970223FFF0CFB8
:1008C00024FDE7CFD2CF2091970223FD2CC0309199
:1008D000980231FFEECF84EE90E0089520919702C8
:1008E00025FFDECF89E290E008952091970225FF51
:1008F000D7CF85E390E008952091970226FFD0CFCF
:100900008AE290E008952091970226FFC9CF81E303
:1009100090E0089589E390E0089583EE90E00895D3
:1009200082EE90E0089586EE90E00895909197020F
:1009300092FF06C0282F28712830F9F4877F846041
:1009400093FF06C0282F28712831F1F4877E846137
:100950002091980220FF06C0382F38713830D9F422
:10096000877F816021FF06C0282F28712831D1F4AC
:10097000877E816194FD877E0895282F247124301D
:10098000F9F68B7F8860DCCF282F2471243101F7A2
:100990008B7E8861DDCF382F3171313019F78E7F32
:1009A0008860E0CF282F2171213121F78E7E886168
:1009B000E1CF0C9457180E9456068FE39CE90197EB
:1009C000F1F700C000000E94560680E00E941B055F
:1009D00080FF04C00E94D9040C946B1A08950C94F3
:1009E000DB040E945D18811102C00E9402190E945E
:1009F000681880938B020E947018909398028093DD
:100A000097020E94EF040E946C18682F70E090E03B
:100A100080E00E949D15609176027091770280912E
:100A20007802909179020C94D71508950C941505CD
:100A300008950C941805E82FF0E0EE0FFF1FEF5417
:100A4000FD4F808191810895089580EA8A95F1F79C
:100A5000089500C008950C942505F894E82FE295B8
:100A6000EF70F0E031A1282F2F7081E090E001C0FD
:100A7000880F2A95EAF7982F9095932391A392A136
:100A8000892B82A37894089508950C9444050F93BC
:100A90001F93CF93DF93CDB7DEB766970FB6F89469
:100AA000DEBF0FBECDBF0E944207809116018111AB
:100AB00034C0FE01379686E0DF011D928A95E9F782
:100AC00086EF898387EF8A8381E38B8383E38C833B
:100AD00082E38D8386E38E83CE010196EAE0F1E026
:100AE0009E01235F3F4FDC014D91CD014193A21741
:100AF000B307C9F72AE0E4E3F1E0DE011D960190B7
:100B00000D922A95E1F7FC01A0E0B1E0CE014796F5
:100B100021912D93E817F907D9F78091160196E0F6
:100B2000811190E09093CA0286E0891B8093C902EC
:100B30000AE011E0F80181918F010E942D05F1E09A
:100B400000311F07B9F700E011E0D8018D918D0148
:100B50000E942D05B1E00A301B07B9F7E9E9F2E080
:100B6000A1EBB2E0119211921D921D9282E0E13B45
:100B7000F807C1F786E00E94EA060E947A026696AC
:100B80000FB6F894DEBF0FBECDBFDF91CF911F919E
:100B90000F910C944C07CF92DF92FF920F931F930B
:100BA000CF93DF93CDB7DEB72C970FB6F894DEBFA7
:100BB0000FBECDBF0E942A07F82E6091CA0288237B
:100BC00009F463C08E010F5F1F4F8CE0F801119292
:100BD0008A95E9F7862F90E0880F991FB8018F5406
:100BE0009D4F0E94F50B81112AC08091A2018F5F59
:100BF0008093A201863008F446C0E091C902F0E07B
:100C0000EE0FFF1FEF54FD4FD801CE010D9611924C
:100C100011921D921D92A817B907C9F70E947E0272
:100C20008F2D2C960FB6F894DEBF0FBECDBFDF918F
:100C3000CF911F910F91FF90DF90CF900895109268
:100C4000A201E091C902F0E0EE0FFF1F9F012F54B7
:100C50003D4F6901D801AE01435F5F4FF12CF601B2
:100C6000619171916F012D913D916217730739F078
:100C7000BF0162507109FB0131832083F82EA41754
:100C8000B50769F7CBCFF12CC9CF70E0660F771F9E
:100C90006F547D4F8091C90290E0880F991F8F5447
:100CA0009D4F0E94200C0E944505BACF8F929F92C3
:100CB000AF92BF92CF92DF92EF92FF920F931F936A
:100CC000CF930AE011E099E9E92E92E0F92E20E1B4
:100CD000A22E21E0B22EC0E0CC24C394D12CF80186
:100CE00081918F01F894E82FE295EF70F0E021A157
:100CF0008F70A60102C0440F551F8A95E2F7CA0102
:100D0000922F982B91A392A18095892382A3789406
:100D10000E942905E0E0F1E030E020E0912C812CF8
:100D20004191A42FA295AF70B0E090968C9190E085
:100D30004F7002C0959587954A95E2F780FD45C0B2
:100D4000C601022E02C0880F991F0A94E2F7882A72
:100D5000992A2F5F3F4F2A30310511F7F80131975B
:100D600080810E942D050E942B05F70180819181D1
:100D70008816990669F19182808281E0C82BF2E0A1
:100D8000EF0EF11CA016B10609F0A9CF6091CA02BE
:100D900070E0660F771F6F547D4F2C2F46E089E976
:100DA00092E00E94EB060E94CB05C11101C0C82F42
:100DB0008C2FCF911F910F91FF90EF90DF90CF90EC
:100DC000BF90AF909F908F90089590E080E0BFCF4C
:100DD00080E0D4CF0895FF920F931F93CF93DF93BA
:100DE000F82E092F162FD72FC42F222349F081E088
:100DF0008093A5010E94DF199093A4018093A30121
:100E00008091A5018823A1F08091A3019091A40174
:100E10000E94F719069760F0EF2DF02FA12FBD2F3C
:100E200090E080E0D0E08C179D0744F01092A5017F
:100E3000DF91CF911F910F91FF90089521913191F2
:100E40002D933D930196EFCF5198599889B186958E
:100E5000817008958091A601811107C00E944421EC
:100E6000882351F081E08093A60181E09091A60152
:100E7000913009F080E0089582E08093A6010E94FD
:100E80003F21F3CF0E942407809316010E942A0776
:100E900081110C94E90B08950E942A07811102C068
:100EA0000C94EF0B08958091AD0180FF12C060910A
:100EB0001C0185E0689FB0011124759567957595B3
:100EC000679560387105A8F561157105A1F1862F48
:100ED000089581FF09C060911C0185E0689FB00101
:100EE000112475956795EDCF60911C0182FD0AC0B4
:100EF0008091AC018823D1F090911B0160911C017D
:100F0000891728F085E0689FB0011124DACF869F09
:100F1000B001112485E0869F9001879F300D112438
:100F2000692F70E0C9010E945121CBCF65E070E0CC
:100F3000CECF8FE7089581E008958091AD0180FFC5
:100F40000CC06091180170E075956795759567956F
:100F50006115710549F1862F089581FF06C06091E2
:100F6000180170E075956795F3CF6091180182FDC7
:100F70000BC09091AB019923A1F060911701809172
:100F80001801961738F0682F70E06038710500F38B
:100F90008FE70895899FC001112470E00E945121BC
:100FA000F4CF61E070E0D7CF81E008958D3E31F459
:100FB0000E94530781958093B10108958E3E19F4E4
:100FC0000E945307F8CF8F3E31F40E94530781955A
:100FD0008093B0010895803F19F40E945307F8CF21
:100FE000893F29F40E949D078093B20108958A3FAA
:100FF00021F40E949D078195F7CF8B3F31F40E9429
:101000009D0781958093B30108958C3F19F40E9448
:101010009D07F8CF9FE0980F983070F4815F990B8F
:1010200021E030E001C0220F8A95EAF78091AF01FC
:10103000822B8093AF0108958D3F31F48091AD01F3
:1010400081608093AD0108958E3F21F48091AD01C0
:101050008260F7CF8F3FB9F78091AD018460F1CF07
:101060004091B0018D3E59F48091B10187FF0DC0D0
:101070001092B10141110BC01092AC0108C08E3E1C
:1010800081F48091B10118169CF3442381F0809182
:10109000B2019091B301892B09F05AC01092AB01B3
:1010A00008958F3E49F447FFF0CF1092B001809130
:1010B000B1018111ECCFE0CF803F19F41416ACF3ED
:1010C000E4CF9091B201893F29F41916F4F61092F9
:1010D000B201DBCF8A3F19F497FFD7CFF8CF9091B9
:1010E000B3018B3F29F497FFD0CF1092B301CDCF3E
:1010F0008C3F19F41916CCF3C8CF9FE0980F9830A5
:1011000090F4815F990B21E030E0B90102C0660FD5
:10111000771F8A95E2F7CB0180959091AF018923E3
:101120008093AF01B2CF8D3F31F48091AD018E7FBE
:101130008093AD01AACF8E3F21F48091AD018D7FC8
:10114000F7CF8F3F09F0A1CF8091AD018B7FF0CF1A
:1011500008950E94DF199C019091B0018091B10126
:10116000982B21F03093AA012093A9019091B2010C
:101170008091B301982B21F03093A8012093A7010F
:101180008EEA91E00C94AC0DEF92FF920F931F93B7
:10119000CF93DF9300D000D000D0CDB7DEB786E08C
:1011A000EEEAF1E0DE01119601900D928A95E1F7E9
:1011B000E090B001F090B1010091B2011091B30143
:1011C0001092B0011092B1011092B2011092B301CD
:1011D0008E2D8F2991F08091A9019091AA010E94F2
:1011E000F719AC019091AC01992309F43FC08091AB
:1011F0001D018417150608F447C0802F812B91F03C
:101200008091A7019091A8010E94F719AC019091DB
:10121000AB01992309F477C0809119018417150651
:1012200008F47FC08091B0019091B101892B909119
:10123000B201892B9091B301892B11F00E94A9086A
:1012400086E0FE013196AEEAB1E001900D928A95FA
:10125000E1F726960FB6F894DEBF0FBECDBFDF9143
:10126000CF911F910F91FF90EF90089520911E0153
:101270008AE0289F900111242417350708F0BDCF7C
:101280009F5F9093AC0102C09F3FD1F7EE2059F0D1
:101290000E9453079FEF1E140CF491E0899F802D4C
:1012A00011248093B001FF2059F00E9453079FEF53
:1012B0001F140CF491E0899F802D11248093B101BB
:1012C0003091B001332309F498CF2091B10122234A
:1012D00009F493CF45EB3403C0011124992359F04D
:1012E0009093B00145EB240390011124332339F08E
:1012F0003093B10182CF81E08093B001F3CF81E0E0
:101300008093B1017ACF20911A018AE0289F900141
:1013100011242417350708F085CF9F5F9093AB0108
:1013200002C09F3FD1F7002359F00E949D079FEF15
:1013300010160CF491E0899F802D11248093B20146
:10134000112359F00E949D079FEF11160CF491E0B4
:10135000899F802D11248093B3013091B2013323F2
:1013600009F460CF2091B301222309F45BCF45EB50
:101370003403C0011124992359F09093B20145EB35
:10138000240390011124332339F03093B3014ACF61
:1013900081E08093B201F3CF81E08093B30142CF2B
:1013A00086E0EEEAF1E0DF011D928A95E9F71092FE
:1013B000AC011092AB011092AD0108950F931F93F1
:1013C000CF93DF93C42FD22FFC0182818823C9F0F1
:1013D0004093B6010E94DF199093B5018093B40148
:1013E00080E28C0F883008F050C0C77081E001C0E7
:1013F000880FCA95EAF7DF91CF911F910F910C9456
:1014000011101091B601141335C08091B401909160
:10141000B5010E94F719883C910560F5C0E2CD0F37
:101420001D17B9F080E2810F883040F4177081E019
:1014300001C0880F1A95EAF70E941810C83048F4C6
:1014400081E09D2F977001C0880F9A95EAF70E945E
:101450001110802F0E940910C830B8F4D77081E0B5
:1014600001C0880FDA95EAF7DF91CF911F910F91B4
:101470000C94181080E28C0F883038F4C77081E02B
:1014800001C0880FCA95EAF7EFCFDF91CF911F9186
:101490000F9108950F939C01CB01243F4CE5340735
:1014A00059F1A8F4293DFCE53F0701F12A3D4CE53F
:1014B0003407D1F1283D3C4591F406E221EE41EE9E
:1014C00068ED7CE50E94DE0980E00F910895263FDB
:1014D000FCE53F07E9F0B0F0273F3C45F9F0FC019F
:1014E0008281882339F11092B601EFCF07E225EE11
:1014F00045EE69ED7CE5E6CF06E221EE40EE64EFD5
:101500007CE5E0CF07E225EE44EE65EF7CE5DACF3F
:1015100006E221EE42EE66EF7CE5D4CF07E225EE4F
:1015200046EE67EF7CE5CECF08E221E045EE6AEDBE
:101530007CE5C8CF81E0C9CFCF93DF93EC01FB01FD
:101540008281882309F419C1C230FCE5DF07C0F1AC
:10155000C6319CE5D90730F09E012B5F3C45293010
:10156000310570F50E94701890939802809397024D
:10157000C031ECE5DE0709F4CFC008F05BC0C8302D
:101580008CE5D80709F4B6C088F5C430ECE5DE0771
:1015900009F4A8C0C0F4C2308CE5D80709F49CC097
:1015A000809197028260C330DC4509F498C0809135
:1015B0009702909198020E947E180E947D1280E00E
:1015C000DF91CF910895809197028061C630ECE55C
:1015D000DE0709F484C0809197028860C730DC453B
:1015E00008F47DC080919702806279C0CC308CE590
:1015F000D80709F489C070F4809197028C60CA30D2
:10160000ECE5DE0709F46BC008F478C0809197021E
:101610008E7F65C0CE308CE5D80709F479C0809103
:1016200097028B7FCF30DC4508F459C08091970238
:101630008F7E55C0CC3FECE5DE0709F457C030F58E
:10164000C3318CE5D80709F46FC078F4C131ECE5FB
:10165000DE0709F465C0C231DC4509F0A8CF0E945D
:101660007D12809197028F773AC0C5318CE5D807FB
:1016700009F462C008F476C0809198028160CB3F83
:10168000DC4509F094CF8093980291CFC115FDE518
:10169000DF0709F44DC088F4809198028D7FCE3F1A
:1016A0009CE5D90781F3809198028E7FCF3FDC457E
:1016B00050F3809198028360E6CFC230FDE5DF07EA
:1016C00009F459C008F444C080E0C330DD4509F096
:1016D0006ECF0E9404196BCF809197028160809336
:1016E000970265CF809197028460F9CF809198022C
:1016F0008260C9CF809197028064F1CF0E947D12F1
:10170000809197028068EBCF809197028D7FE7CF21
:1017100080919702877FE3CF809197028F7DDFCF03
:10172000809197028F7BDBCF80919702837FD7CF09
:10173000809198028C7FA7CF8091970282FB992796
:1017400090F921E0922790FB82F990FB83F9C7CFB3
:1017500080919802982F909591708E7F892B90FBA5
:1017600081F991CF0E947D1290919702892F97FB6A
:1017700087F98058B4CF81E0ACCF81E021CFCF93FF
:10178000DF93EB0186319C4511F50E94A5179A81E4
:10179000992399F08A7A91E009F490E09093B70147
:1017A000811109C089E20E945F170E94E81780E05A
:1017B000DF91CF91089585E3F6CF8091B701811134
:1017C00004C089E20E946617F0CF85E3FBCF81E079
:1017D000EFCF61E070E08FE191E00C94A20C61E04A
:1017E00070E08FE191E00C94A90CCF93DF93D62F9A
:1017F000C72F0E94430D009709F5ED2FFC2FDC0148
:10180000AA0FBB1FA354BE4F2D913C91219331933E
:1018100001968630910599F70E94501A6E5F7F4FAE
:101820008F4F9F4F6093B9017093BA018093BB01B2
:101830009093BC0181E0DF91CF91089580E0FBCFD0
:10184000CF93DF93D62FC72F6091B9017091BA0162
:101850008091BB019091BC010E94331AED2FFC2FA7
:1018600090E080E021913191DC01AA0FBB1FA354CD
:10187000BE4F11963C932E9301968630910591F7B9
:10188000DF91CF9108958EE1489B02C08150E1F72E
:10189000489BFECF0895589880E28A95F1F7589AB0
:1018A0000895FC013BE03A95F1F798E020E080E0F4
:1018B00031E040E14A95F1F7880F489B02C0816012
:1018C000232742E04A95F1F7000040E14A95F1F7FD
:1018D000915079F790E19A95F1F799B132E03A9504
:1018E000F1F7000040E14A95F1F7917092272081CD
:1018F000920F90830895EF92FF920F931F93CF93CF
:10190000DF930F92CDB7DEB719828C017C01E60E12
:10191000F11C0E151F0561F481E09981911180E0A1
:101920000F90DF91CF911F910F91FF90EF9008954D
:101930000E94430CCE0101960E94510CF801819344
:101940008F01E7CF9093CA018093C901509A589AAA
:1019500008959093CA018093C9015098589AE89AC3
:10196000E9E6F0E080818C7F808308956150770BF9
:1019700091E001C0990F6A95EAF720E031E09111FA
:1019800008C0222391F0589A80E28A95F1F758987E
:101990000895492F482339F0589A232740E24A9561
:1019A000F1F79695ECCF5898F9CF5898EDCFFF9274
:1019B0000F931F93CF93DF93EC018C01060F111D42
:1019C000C017D10731F4DF91CF911F910F91FF9094
:1019D0000895F9900E944B0C68E08F2D0E94B60C80
:1019E000EFCF1F920F920FB60F9211242F933F93B8
:1019F0004F935F936F937F938F939F93AF93BF9317
:101A0000CF93DF93EF93FF935898509AC091C901F9
:101A1000D091CA016D81662321F08E819F810E9441
:101A2000D70C0E944B0C80E18A95F1F7589850989A
:101A3000589A80E18A95F1F76A81662309F18B81D2
:101A40009C810E947B0CE881F981882311F088E059
:101A500001C082E080830E94430CFF91EF91DF91EF
:101A6000CF91BF91AF919F918F917F916F915F9136
:101A70004F913F912F910F900FBE0F901F9018958F
:101A8000E881F981E4CFCF93DF93C091C901D09170
:101A9000CA01F894509A589885E08A95F1F70000A9
:101AA0005098589A80E28A95F1F7489B0CC0509A5A
:101AB000589AE881F98181E08083789481E090E010
:101AC000DF91CF9108956D81662381F08E819F8192
:101AD0000E947B0C81110AC0509A589AE881F981C2
:101AE00082E08083789482E090E0EACF0E94430C09
:101AF00080E28A95F1F75898509A80E18A95F1F73B
:101B00006A81662321F08B819C810E94D70C0E9400
:101B10004B0CE881F9811082789490E080E0D0CF7E
:101B20009093D0018093CF010895E091CF01F0917F
:101B3000D001309721F00190F081E02D099480E0F0
:101B40000895E091CF01F091D001309721F002800B
:101B5000F381E02D09940895E091CF01F091D00137
:101B6000309739F022E0DC012C930480F581E02DE0
:101B7000099408952091CD013091CE01281739079D
:101B800071F09093CE018093CD01E091CF01F0915F
:101B9000D001309721F00680F781E02D0994089557
:101BA0002091CB013091CC012817390771F0909327
:101BB000CC018093CB01E091CF01F091D00130971F
:101BC00021F00084F185E02D099408950E94EB191D
:101BD0006093EE017093EF018093F0019093F10117
:101BE0006093EA017093EB018093EC019093ED0117
:101BF000089585B7806885BF85B7806885BF0895DB
:101C0000089508950C94000E08950C94040E0E94FB
:101C1000F90D85E598E10E948F1A0E94010E0C943F
:101C2000020E0C942A07089508950E94130E0C9436
:101C3000140E0E94D6190E942A1A0E9447050C947D
:101C4000050E8F929F92AF92BF92CF92DF92EF924A
:101C5000FF920F931F93CF93DF93CDB7DEB72A97F1
:101C60000FB6F894DEBF0FBECDBF0E94560681119D
:101C70000E94E60D52ED852E51E0952E10E000E019
:101C8000A02E802F0E941B056C01F401E190F190C1
:101C90004F01E816F90609F45CC080918B0281FDC2
:101CA0000E942405C7018C259D25B12CEE24E394C8
:101CB000F12C9C012E213F21232B09F444C00E94CA
:101CC000110E8823A9F0BE82AF82CE20DF2081E0F2
:101CD000CD2809F480E088870E94DF198160782F81
:101CE0009A8789874E815F8168858A850E94D30E95
:101CF000000F111FF801EE52FE4F80819181E826FE
:101D0000F926F182E0820E94C4080E94950D90910C
:101D1000D1018917A9F10E94950D8093D1012A96CE
:101D20000FB6F894DEBF0FBECDBFDF91CF911F91EC
:101D30000F91FF90EF90DF90CF90BF90AF909F906A
:101D40008F900C94E902B394EE0CFF1CFAE0BF12E2
:101D5000B0CF0F5F1F4F0C30110509F091CF8FEFFF
:101D600089838A831B820E94DF198160782F9D837B
:101D70008C8349815A816B818D810E94D30EC3CFA0
:101D80002A960FB6F894DEBF0FBECDBFDF91CF917C
:101D90001F910F91FF90EF90DF90CF90BF90AF9089
:101DA0009F908F900895DF92EF92FF920F931F9371
:101DB000CF93DF93CDB7DEB72B970FB6F894DEBF86
:101DC0000FBECDBF7A878B87F42E052F162FE72EF7
:101DD000D82E61110E94C5171E821D827E2DEC82B5
:101DE000DD824F2D502F612F8D2D9E812B960FB6AA
:101DF000F894DEBF0FBECDBFDF91CF911F910F9141
:101E0000FF90EF90DF900C94F314FC01808191819E
:101E10000C943117CF93C82F882309F48BC08238D4
:101E2000C1F40E94950D81FD85C089E30E945F1772
:101E30000E94E8172FEF81EE94E0215080409040FF
:101E4000E1F700C0000089E30E946617CF910C946F
:101E5000E8178338A1F40E94950D80FD6BC083E5DF
:101E60000E945F170E94E8172FEF81EE94E0215047
:101E700080409040E1F700C0000083E5E5CF843862
:101E8000A1F40E94950D82FD55C087E40E945F1762
:101E90000E94E8172FEF81EE94E02150804090409F
:101EA000E1F700C0000087E4CFCF8CEF8C0F813AC0
:101EB00090F46C2F80912701909128010E941B19AA
:101EC000882329F08C2F0E9466170E94E8178C2F18
:101ED0000E945F17BBCF80E28C0F883048F4C77038
:101EE00081E001C0880FCA95EAF70E94A817AECF1B
:101EF000EBE5EC0FE33040F4F0E0E356FE4F808179
:101F000090E0CF910C94BA0DE8E5EC0FE73150F476
:101F1000F0E0EE0FFF1FE159FE4F80819181CF91DC
:101F20000C94D00DCD3E30F08C2F0E94D607CF916F
:101F30000C94A908CF910895882309F452C08238DF
:101F400071F40E94950D81FF4CC089E30E945F17D8
:101F50000E94E81789E30E9466170C94E8178338FB
:101F600059F40E94950D80FF3CC083E50E945F17E5
:101F70000E94E81783E5EFCF843859F40E94950D4D
:101F800082FF2FC087E40E945F170E94E81787E452
:101F9000E2CF9CEF980F913AF0F290E2980F9830D0
:101FA00050F4877091E001C0990F8A95EAF7892F64
:101FB0000E94AE17D2CF9BE5980F933020F490E0AB
:101FC00080E00C94BA0D98E5980F973120F490E0DA
:101FD00080E00C94D00D8D3E20F00E9430080C94CF
:101FE000A90808951F93CF93DF93182FEB010E9448
:101FF0000A0F209731F4812FDF91CF911F910C941C
:102000009C0F8FE99FE00197F1F700C00000219736
:10201000F0CF70E060E0893311F460E570E00C947B
:10202000F20F882321F00E94A8170C94E817089556
:10203000882321F00E94AE170C94E8170895BF92F0
:10204000CF92DF92EF92FF920F931F93CF93DF9384
:102050006C01D62FC72FFC011281058102950F70EC
:102060000E947D17E82E8823A1F0E12E112389F02C
:102070008C2F807F803429F080E28D0FE12C883016
:1020800040F082E00E9439180E947D1791E0E82E0E
:10209000E926BC2EB2949FE0B922FBE0FB1598F133
:1020A000EB2DF0E0ED53FE4D0C9465210C2F0F70DD
:1020B000C07F11F00295007F1123A9F0002359F091
:1020C00080E28D0F883010F0D11109C0802F0E945E
:1020D000A8170E94E8178D2F0E940A0F14C0802FA6
:1020E0000E94B817F6CF8D2F0E949C0F002359F045
:1020F00080E28D0F883010F0D1112CC0802F0E940B
:10210000AE170E94E8172B2D2850330B24303105D1
:1021100020F40E94950D0E94E902EE2009F48EC180
:102120000E94791780FD8AC1F60112820E947317FE
:102130000E94FF15C6010E943F120E947317DF9193
:10214000CF911F910F91FF90EF90DF90CF90BF90B4
:102150000C942016802F0E94BE17D3CF2C2F2F70E7
:10216000F22EC07FC03219F0F29480EFF822DD2306
:1021700069F0D13049F1112391F1002351F1F601B9
:10218000858180FFA8CF8F70858323C0112381F0C4
:10219000011106C00E94CB178F290E941110B3CFE6
:1021A0000130C1F70E94CB178F290E94D117ABCF06
:1021B000011106C00E94DE178F2D0E941810A3CFB8
:1021C000013009F4A0CFF6CF112329F0063008F032
:1021D0009ACF8F2DE2CF053008F095CFEDCF0023B9
:1021E00059F3D93349F4FFEF27EE33E0F1502040A3
:1021F0003040E1F700C000008D2F0E949C0F83CF7C
:102200008C2F86958695837069F0813009F07BCF9D
:102210008D2F9C2F9370111102C090E080E00E94DE
:10222000D00D71CF8D2F9C2F9370111102C090E0B3
:1022300080E00E94BA0D67CF8D2F112329F00E94F4
:10224000D6070E94A9085FCF0E943008FACF8C2FD2
:10225000837009F041C0111156CF4D2F429546951C
:102260004770440F440F0D2F0F7010E030E020E056
:10227000042E04C0000F111F221F331F0A94D2F72F
:1022800060E070E0CB01D4FF0FC06FE070E080E051
:1022900090E004C0660F771F881F991F4A95D2F7F8
:1022A0006095709580959095C695C695C370602B86
:1022B000712B822B932BC23049F058F4C13019F0A6
:1022C0000E94B11520CF0E949F151DCF0E94C315FB
:1022D0001ACF0E949D1517CF8695112311F08C2FD0
:1022E0008170882309F40FCF4D2F42954695477092
:1022F000440F440F0D2F0F7010E030E020E0042E4B
:1023000004C0000F111F221F331F0A94D2F760E090
:1023100070E0CB01D4FF0FC06FE070E080E090E090
:1023200004C0660F771F881F991F4A95D2F76095E2
:10233000709580959095C695C695C370602B712B4E
:10234000822B932BC23049F058F4C13019F00E940F
:102350007616D9CE0E946416D6CE0E948816D3CEA9
:102360000E94D915D0CECF70112329F08C2F0E9456
:10237000FF158D2F12CF8D2F0E9418108C2F0E94C9
:102380002016C1CED23F89F160F4D03FC9F0D13FD1
:1023900029F1112309F442C001119DCE8C2F8F71B8
:1023A00021C0D33F39F1D43FA1F7112369F1CF7197
:1023B0008C2F0E94FF1563E08C2F0E941E18A3CE65
:1023C000112341F0053008F09ECE8C2F8F710E94B2
:1023D000431699CE063008F096CEF7CF8C2F8F712A
:1023E000112369F20E94FF158ECE8C2F8F7111235D
:1023F000C9F3C5CF112329F08C2F8F710E94EA15E4
:1024000082CE0E94E5157FCE81E00E94391802300D
:1024100008F479CE82E00E94391875CE002359F075
:10242000D93309F0E9CE8FEF97EEE3E08150904089
:10243000E040E1F7DFCE8C2F8F71A1CFDF91CF91FC
:102440001F910F91FF90EF90DF90CF90BF90089574
:102450000F931F93CF93DF93EC01688179818A8179
:102460000E943B178C010E949A160E949C15B8018D
:10247000CE01DF91CF911F910F910C941F10CF933C
:10248000DF93EC018B819C81892B29F088819981D4
:1024900089238F3F59F4DF91CF910895CE010E9497
:1024A0002812CE01DF91CF910C946F02CE010E94D1
:1024B00090028111F3CF0E947D17882361F38A81F6
:1024C000882349F382E0DF91CF910C94391890E092
:1024D00080E00E94BA0D90E080E00E94D00D0E9442
:1024E000C5170E94C8170E94E8170E94D0090C94D3
:1024F000A9080E946D170C9467120E94B5170C94DE
:102500007912E92FE295EF70E250EE3070F4F0E0CE
:10251000E153FE4D0C946521803F19F020F4883E74
:1025200020F481E00895843FE1F380E00895883E3F
:10253000C0F3813FD1F7F5CF93FB882780F9089549
:102540000E9431170C948112CF93DF9300D000D0FA
:102550000F92CDB7DEB70F900F900F900F900F90A6
:10256000DF91CF910895CF93DF9300D000D000D0BA
:10257000CDB7DEB726960FB6F894DEBF0FBECDBF3F
:10258000DF91CF9108951F93CF93DF93C091F30113
:1025900016E08091F4018C1304C0DF91CF911F915C
:1025A0000895D0E01C9FF0011D9FF00D1124EB5009
:1025B000FE4F4081518162817381848195810E94A7
:1025C000B3122196C770E5CF4091250250912602A3
:1025D00060912702709128028091290290912A022D
:1025E0000C94B3121F93CF93DF9380912A02807FC4
:1025F000A9F480912702882389F08091F301C0918A
:10260000F4016091250270912602A0912802B091F8
:102610002902D62FD72316E0C81304C0DF91CF912B
:102620001F91089590E0109711F0DF3F19F4019683
:102630008770F2CF189F9001199F300D1124F90176
:10264000EB50FE4F41814713F2CF40814613EFCF4D
:1026500042814111ECCF438154814A1B5B0B483CC2
:10266000510528F780912A028F70806180932A0299
:10267000F901E650FE4F80818F708061808385E292
:1026800092E00E943F12DF91CF911F910C94C312F0
:10269000AF92BF92CF92DF92EF92FF920F931F9370
:1026A000CF93DF93CDB7DEB761970FB6F894DEBF57
:1026B0000FBECDBF8C0185E0F801DE011D960190B3
:1026C0000D928A95E1F7F80140815181E28085E21F
:1026D000C82E82E0D82E60912802709129026115DF
:1026E000710509F461C19091250220912602892F7C
:1026F00082238F3F09F458C1A380B480F090270251
:10270000F501E61BF70BFF2009F4FCC080912A02BB
:10271000382F307FE83CF10508F0B2C0311179C0A4
:10272000FE2C251323C0941321C0E1101FC08F700D
:10273000806180932A020E94E412C6010E943F1227
:1027400080912A02F80185838F2D61960FB6F89447
:10275000DEBF0FBECDBFDF91CF911F910F91FF90D4
:10276000EF90DF90CF90BF90AF900895AB2829F005
:10277000842F85238F3F09F033C180E0F82FF1705B
:10278000DF2E80FF3CC08091F3012091F40136E000
:10279000821315C04D875E878D859E850E943117F7
:1027A000292F22952F702230F0F0243018F59F70D9
:1027B000F1F0F8019581907FD1F4D12C1EC090E00A
:1027C000389FF001399FF00D1124EB50FE4F6181CD
:1027D000651306C06081641303C062816E110FC06F
:1027E00001968770D5CF9F7011F0882331F3805EFA
:1027F000883018F3C8010E943F12FD2CA5CFEE20AF
:1028000009F4A2CF80912A02816080932A02F12CE0
:102810009BCF251306C0941304C0F801EE2009F4E1
:102820008DC04D875E878D859E850E94A01288236E
:1028300019F1EE2009F180912A02803270F0209186
:1028400025023091260238872F831986BB86AA86F7
:102850008C87CE0107960E943F1286E0F801A5E220
:10286000B2E001900D928A95E1F70E94F2120E9467
:10287000E412FF24F39468CFC8010E943F12F9CFFD
:10288000311113C07A2DB98AA88A6E2D89890E94C8
:10289000A41285E292E00E943F1286E0F6011192B6
:1028A0008A95E9F70E94E412B2CF25130FC0941362
:1028B0000DC0E1100BC0F8018583C8010E943F12D2
:1028C00086E0F60111928A95E9F73ECF4D875E8743
:1028D0008D859E850E94A012882371F2EE2061F200
:1028E00080912A02803208F4B8CF209125023091DD
:1028F00026023A8329831B82BD82AC828E83CE015D
:102900000196A9CFE83CF10508F041C0FE2CEE206D
:1029100009F4B2CF25132AC0941328C080912A024B
:1029200080FD1BC0982F907FC1F0F8018583903FF8
:1029300031F0982F907F905F8F70892B8583C8012D
:102940000E943F1286E0F801A5E2B2E001900D92EC
:102950008A95E1F70E94E412F7CE86E0F801A5E23D
:10296000B2E001900D928A95E1F7EECE4D875E8739
:102970008D859E850E94A01281116FCF80912A02C1
:10298000816080932A02C8010E943F12DDCE7A2D19
:10299000B98AA88A6E2D89890E94A41286E0F60160
:1029A00011928A95E9F7D6CFEE2009F465CF4D87CD
:1029B0005E878D859E850E94A012F82E882309F4DB
:1029C0005BCF86E0F801A5E2B2E001900D928A9516
:1029D000E1F785E292E00E94050F0E94F212BACF61
:1029E00081E08E25CBCE1F93CF93DF93CDB7DEB79B
:1029F0002C970FB6F894DEBF0FBECDBF4F8358871C
:102A000069877A878B879C87CE0107960E94481337
:102A1000882369F08A859B85892B39F04F815885F9
:102A2000842F85238F3F09F071C016E05FC086E0D8
:102A3000FE013796DE01119601900D928A95E1F71D
:102A40008A859B85892B89F38F81988589238F3F80
:102A500061F32091F40130E0C90101968770992754
:102A60004091F3014817190671F40E947D121092EB
:102A7000F4011092F30186E0E5E2F2E0DF011D923D
:102A80008A95E9F7D2CF96E0929FD001939FB00D3F
:102A90001124AB50BE4FFE01319601900D929A95D4
:102AA000E1F78093F4010E94C312BFCF819FC00160
:102AB00011248B509E4F0E9448138823E9F0E09127
:102AC000F3011E9FF0011124EB50FE4F4081518114
:102AD00062817381848195810E94B3128091F30198
:102AE00090E00196877099278093F3018091F3011C
:102AF0009091F4018913DACF2C960FB6F894DEBFCB
:102B00000FBECDBFDF91CF911F91089569857A8562
:102B10008B859C850E94B31288CF08950C948D15E7
:102B20000E948E1560937A0270937B0280937C02E0
:102B300090937D020C94671208950C9490150F9356
:102B40001F9300917A0210917B0220917C023091B8
:102B50007D02602B712B822B932B1F910F910C9474
:102B600090150F931F9300917A0210917B02209190
:102B70007C0230917D0260237123822393231F9175
:102B80000F910C9490150F931F9300917A0210915E
:102B90007B0220917C0230917D0260277127822781
:102BA00093271F910F910C9490150C948D150C94F4
:102BB000D5150E94D71560937602709377028093A3
:102BC0007802909379020C94671260E070E0CB0178
:102BD0000C94D9150F931F9341E050E060E070E032
:102BE0008A019B0104C0000F111F221F331F8A9509
:102BF000D2F7C901B8011F910F910C94D9150F9309
:102C00001F9341E050E060E070E004C0440F551FA6
:102C1000661F771F8A95D2F780917602909177028E
:102C2000A0917802B09179028A019B01082B192B9F
:102C30002A2B3B2BC901B8011F910F910C94D91578
:102C40000F931F9341E050E060E070E004C0440F38
:102C5000551F661F771F8A95D2F7CB01BA01609581
:102C60007095809590950091760210917702209151
:102C700078023091790260237123822393231F917C
:102C80000F910C94D9150F931F9341E050E060E031
:102C900070E004C0440F551F661F771F8A95D2F756
:102CA0008091760290917702A0917802B09179029A
:102CB0008A019B01082719272A273B27C901B80148
:102CC0001F910F910C94D9150F931F9300917602C9
:102CD000109177022091780230917902602B712B4C
:102CE000822B932B1F910F910C94D9150F931F9347
:102CF000009176021091770220917802309179024A
:102D000060237123822393231F910F910C94D91573
:102D10000F931F9300917602109177022091780211
:102D20003091790260277127822793271F910F9195
:102D30000C94D91508952AE0929F800D1124982FA4
:102D4000977041E001C0440F9A95EAF78695869501
:102D5000869595E0899FF0011124E55DFD4F90E097
:102D600080E070E05191DF0111979B01082E02C0B5
:102D7000369527950A94E2F721702195252724237B
:102D800025272C9301968530910561F708952AE057
:102D9000929F800D1124982F977086958695869521
:102DA00025E0829FF0011124E55DFD4F50E040E0F9
:102DB00080E0219130E0092E02C0369527950A94D3
:102DC000E2F721703327042E01C0220F0A94EAF79C
:102DD000822B4F5F5F4F4530510559F70895BF92E1
:102DE000CF92DF92EF92FF920F931F93CF93DF93D7
:102DF0008C01C0907602D0907702E0907802F0903B
:102E0000790280917A0290917B02A0917C02B0912C
:102E10007D02C82AD92AEA2AFB2ACFE1D0E0BC2EBB
:102E2000D701C6010C2E04C0B695A7959795879536
:102E30000A94D2F780FD0EC0219788F7B12C8B2D14
:102E4000DF91CF911F910F91FF90EF90DF90CF9086
:102E5000BF900895B8018C2F0E940503019761F37C
:102E6000EECFCF93DF93EC010E94EF16BE01DF910E
:102E7000CF910C9405031F93CF93DF93EB019091B7
:102E8000F201992331F0CB01DF91CF911F910C9486
:102E90003117882379F0CB010E94EF16182F682F85
:102EA000CE010E949B16BE01812FDF91CF911F9111
:102EB0000C940503CB010E94C716182FF4CF682F7E
:102EC00080912701909128010C945119682F8091CD
:102ED0002701909128010C9453198091270190911A
:102EE00028010C94551980917E02859585958595CC
:102EF000089580917E028770089590917E02977068
:102F000081E009F480E008959091980292FB2227D5
:102F100020F9281751F080FB92F990939802809144
:102F20009702909198020C947E18089580919802CF
:102F300082FB882780F991E089270C94841781E02F
:102F40000C94841780E00C94841780918A02089571
:102F500090918A02892B80938A020895809590919E
:102F60008A02982390938A02089510928A02089503
:102F700090918902892B8093890208958095909180
:102F800089029823909389020895109289020895E6
:102F900010928802089580917F02089508950C94FC
:102FA000CE179091980292FD08C090917F029817D9
:102FB00021F080937F020C94CF17089580917F02B7
:102FC000882329F010927F0280E00C94CF17089597
:102FD000E0912701F091280180918A028083E0919D
:102FE0002701F0912801808190918902892B8083AB
:102FF000E0912701F0912801808190918802892B2E
:10300000808390917F02992381F0E0912701F091D4
:1030100028018081892B808380912701909128014C
:103020000E94091981110E94DE1780912701909159
:1030300028010C94A10D08950C941B1890919802EE
:1030400092FD10C098E0899F90011124622B60933B
:103050007E020E94FF1580917E028595859585955B
:103060000C941C180C94FF1510927E0280E00C94B6
:103070001C1890917E028095892380937E02282FD0
:10308000277039F4282F082E000C330B92171306E3
:1030900021F49091980292FF07C0859585958595BA
:1030A0000E9420160C943418089580E008956FEF64
:1030B0007FEF90E080E00C94AB2190E080E00E94F4
:1030C000872121E08A3E9E4F09F020E0822F08955B
:1030D00082E090E00C947F2183E090E00C947F21CB
:1030E000CF9384E090E00E947F21C82F82E290E09D
:1030F0000E947F21982F8C2FCF910895CF93C92FB5
:10310000682F84E090E00E948D216C2F82E290E095
:10311000CF910C948D21AB01BC018FE090E00C9419
:103120009F21AB01BC0183E190E00C949F2160E002
:1031300070E0CB010C94911860E070E0CB010E942C
:103140008B180C9497186AEE7EEF90E080E00E9456
:10315000AB2160E082E090E00E948D2160E083E09E
:1031600090E00E948D2110927A0210927B021092C0
:103170007C0210927D0260E084E090E00E948D214C
:1031800060E082E290E00E948D2160E085E090E0C6
:103190000E948D2160E086E090E00E948D216FEF1B
:1031A00087E090E00E948D2140E050E0BA0188E085
:1031B00090E00E949F2160E08DE090E00E948D21D0
:1031C00040E050E0BA0188E190E00E949F2160E079
:1031D00087E190E00E948D2140E050E0BA018CE14F
:1031E00090E00E949F2170E060E080E290E00E9409
:1031F000AB2140E050E0BA0188E190E00E949F21BD
:103200000C949C180C94A318682F8EE090E00C94FA
:103210008D219C012E5F3F4FAC01485F5F4F80E0E6
:103220002417350709F40895F90191919F01992315
:10323000B9F38F5FF5CF662349F0FC01329608960B
:103240002191261729F0E817F907D1F780E00895B2
:1032500081E008959C01FC0132969FEF80E041914E
:10326000461751F09F3F19F4411101C0982F8F5F0D
:103270008630A9F79F3F09F40895290F311D97FD66
:103280003A95F90162830895FC01329608962191DE
:10329000261303C0DF0111971C92E817F907B9F74D
:1032A00008950C942A190C944419029626E0FC0106
:1032B00011922A95E9F70895089508950C945D19DF
:1032C0008091D702843049F10E945E1980E00E940B
:1032D000E90210928C0288E190E020E40FB6F894A5
:1032E000A895809360000FBE2093600083B7817F14
:1032F000846083BF83B7816083BF7894889583B7E8
:103300008E7F83BF0FB6F894A89580916000886186
:1033100080936000109260000FBE08950895CF93CF
:103320000E945C190E9456060E948E19C0E08C2FE4
:103330000E941B05892B31F4CF5FCC30C1F780E0B0
:10334000CF91089581E0FCCF08950C94A4190E94B8
:103350007D120E94950D0E94E9020C94A5191F92FE
:103360001FB61F9211248F939F93AF93BF938091A9
:103370008C02811113C08091CB029091CC02A0915C
:10338000CD02B091CE024196A11DB11D8093CB021A
:103390009093CC02A093CD02B093CE02BF91AF9197
:1033A0009F918F911F901FBE1F90189582E084BD42
:1033B00093E095BD9AEF97BD80936E0008952FB767
:1033C000F8948091CB029091CC02A091CD02B09163
:1033D000CE022FBF08952FB7F8946091CB02709161
:1033E000CC028091CD029091CE022FBF08959C0116
:1033F0004FB7F8948091CB029091CC02A091CD026E
:10340000B091CE024FBF821B930B089578941F9208
:103410001FB61F9211248F939F93AF93BF938091F8
:10342000CB029091CC02A091CD02B091CE02019638
:10343000A11DB11D8093CB029093CC02A093CD022D
:10344000B093CE02BF91AF919F918F911F901FBEFD
:103450001F9018951092CF021092D0021092D102B4
:103460001092D2020895CF92DF92EF92FF926B01F9
:103470007C010E942A0781110EC00E94EB19C61A16
:10348000D70AE80AF90AC092CF02D092D002E0929D
:10349000D102F092D202FF90EF90DF90CF9008958A
:1034A0000F931F930E942A07882321F01F910F91E9
:1034B0000C94EB190E94EB190091CF021091D002ED
:1034C0002091D1023091D202600F711F821F931F91
:1034D0001F910F91089581E08093E00080E2809336
:1034E000D8001092C9008FE19EE40197F1F700C067
:1034F000000087E090EBDC018093E0029093E10212
:10350000A093E202B093E30288E19CE00FB6F89446
:10351000A895809360000FBE90936000FFCF9093BA
:10352000A1018093A0010895809195020895CF9301
:10353000DF9300D00F92CDB7DEB79091D7029430D1
:1035400019F589837B836A8382E08093E9008FEF9A
:103550009091E800815095FD06C095ED9A95F1F7A0
:1035600000008111F5CF8091E80085FF0DC050E08B
:1035700040E063E070E0CE0101960E94AE1C8091B5
:10358000E8008E778093E8000F900F900F90DF9106
:10359000CF910895BC0184E00C94971ABC0183E09C
:1035A0000C94971A9C0182E08093E9009FEF809130
:1035B000E800915085FD06C085ED8A95F1F7000081
:1035C0009111F5CF8091E80085FF0CC050E040E0FC
:1035D00066E070E0C9010E94AE1C8091E8008E7721
:1035E0008093E8000895CF93DF93EC0181E080930E
:1035F000E9008FEF9091E800815095FD06C095EDB0
:103600009A95F1F700008111F5CF8091E80085FFD0
:1036100014C050E040E068E070E0CE010E94AE1CB3
:103620008091E8008E778093E80088E0FE01ADE8A5
:10363000B2E001900D928A95E1F7DF91CF91089564
:103640008091D602811109C00E943E1E0E949B1EDD
:103650008091E20084608093E20008951092D60287
:10366000089508950895089542E061EC81E00E9474
:10367000BA1D42E261EC82E00C94BA1D8091D9023D
:10368000833009F45FC030F48130C1F1823009F435
:103690009BC008958A3009F487C08B3009F46DC04F
:1036A000893009F04EC08091D802813209F049C0BA
:1036B0008091DC029091DD02029708F042C0809177
:1036C000E800877F8093E8008091E80082FF35C0A2
:1036D0009091F3008091F200029729F48091F1001B
:1036E0008B7F813021F48091F1008093950280914D
:1036F000E8008B778093E8000C94EE1D8091D8024F
:10370000813AF9F48091E800877F8093E800809106
:10371000DC029091DD02892B61F468E08DE892E093
:1037200070E00E94FD1C8091E8008B778093E80098
:10373000089560E090E080E0F3CF8091D70281119E
:10374000C3CF08958091D802813AD9F78091DC02E5
:103750009091DD02892BA9F78091E800877F809303
:10376000E8008091E80080FFFCCF809133018093D6
:10377000F1008091E8008E77BDCF8091D802813230
:1037800001F78091DC029091DD02892BD1F68091C6
:10379000E800877F8093E8000E94EE1D8091DA02A6
:1037A000809333010C947D128091D802813249F6C6
:1037B0008091E800877F8093E8000E94EE1D809151
:1037C000DB028093960208958091D802813A09F035
:1037D000B8CF8091E800877F8093E8008091E8006F
:1037E00080FFFCCF80919602C2CF84B7877F84BFD1
:1037F0000FB6F894A895809160008861809360006E
:10380000109260000FBE80E890E00FB6F8948093AD
:103810006100909361000FBE0E94070E0E943E1E41
:103820000E949B1E8091E20084608093E200789465
:103830000E9424210E94190E89E291E00E94900DBD
:103840008091D702853099F00E94210E0E94150EBA
:10385000F7CF0E9460198091D502882341F00E9421
:103860008F19882321F00E94981C0E947D1280915C
:10387000D702853071F30E94A719E6CF0C94401C43
:10388000292F33272330310519F168F42130310510
:1038900009F444C02230310509F445C090E080E0CD
:1038A00030E020E025C02132310549F122323105D6
:1038B000A9F780E490E022E833E061157105C1F0DA
:1038C0008BE790E027E033E06130710589F0E6CFC7
:1038D00099278130910581F0009729F00297F1F640
:1038E000ECE8F2E002C0E6EBF2E0849190E09F01A8
:1038F000FA01318320830895EEE9F2E0F6CF89E002
:1039000090E02CEC32E06115710591F389E090E0D4
:1039100025EE32E06130710559F3C0CF82E190E0CD
:1039200025EF32E0E5CF8BE390E02AEB32E0E0CF09
:1039300080E189BD82E189BD09B400FEFDCF80919F
:10394000D8008F7D8093D8008091E00082608093C2
:10395000E0008091E00081FDFCCF0895AF92BF921E
:10396000CF92DF92FF920F931F93CF93DF936C015F
:10397000EB018A010E940D1EF82E811123C0011552
:10398000110539F0F80180819181C81BD90BC80E4F
:10399000D91EB12CA12C2097A9F08091E80085FDBB
:1039A00022C08091E8008E778093E8000115110510
:1039B000A1F0F80180819181A80EB91EB182A08288
:1039C00085E0F82E8F2DDF91CF911F910F91FF9001
:1039D000DF90CF90BF90AF9008950E940D1E882376
:1039E000D1F2F82EEFCFF60181916F018093F100B3
:1039F0002197FFEFAF1ABF0ACECFFC018091DE0204
:103A00009091DF0286179707A0F06115710529F4E0
:103A10009091E8009E779093E80090E06115710521
:103A200051F4911108C08091E80082FF34C080E019
:103A30000895BC01F2CF8091D7028823C1F185306F
:103A4000C1F18091E80083FD30C08091E80082FDE3
:103A5000EACF8091E80080FFE1CF8091F3002091D0
:103A6000F200382F6115710519F02830310558F032
:103A700091E02830310509F090E02091E8002E77A0
:103A80002093E800CBCF81918093F10061507109C0
:103A90002F5F3F4FE7CF8091D702882341F08530D9
:103AA00041F08091E80083FFBECF81E0089582E07D
:103AB000089583E00895FC018091DE029091DF0279
:103AC00086179707A0F06115710529F48091E80029
:103AD0008E778093E80090E06115710551F49111A3
:103AE00008C08091E80082FF35C080E00895BC01E5
:103AF000F2CF8091D7028823C9F18530C9F1809136
:103B0000E80083FD31C08091E80082FDEACF80911A
:103B1000E80080FFE1CF8091F3002091F200382F80
:103B20006115710519F02830310558F091E0283001
:103B3000310509F090E08091E8008E778093E800ED
:103B4000CBCF84918093F1003196615071092F5F42
:103B50003F4FE6CF8091D702882341F0853041F076
:103B60008091E80083FFBDCF81E0089582E0089551
:103B700083E00895982F973028F08F708093E900A4
:103B800081E008959093E900242F762F50E0981754
:103B900031F07091EC002091ED005091F00021FD8A
:103BA00002C09F5FE8CF3091EB003E7F3093EB0087
:103BB0003091ED003D7F3093ED003091EB003160AE
:103BC0003093EB007093EC002093ED005093F000E5
:103BD0002091EE0027FDE5CF80E008958091D80286
:103BE00087FF13C08091E80082FF06C08091E80043
:103BF0008B778093E80004C08091D7028111F2CFC7
:103C000008958091D7028823D9F38091E80080FF3E
:103C1000F8CF8091E8008E77ECCF2091E4003091CE
:103C2000E50095E6A9012091EC00822F817020FF2C
:103C300006C08091E80080FF06C080E008952091D2
:103C4000E80022FD1AC08091D702882389F08530D0
:103C500089F08091EB0085FD0FC02091E400309148
:103C6000E50042175307F9F29150E1F684E0089518
:103C700082E0089583E0089581E008950E94AC1EDB
:103C80000E94B41EE0EEF0E0808181608083E8ED68
:103C9000F0E080818F77808319BCA7EDB0E08C9134
:103CA0008E7F8C9380818F7E80831092D6020895C0
:103CB0000F931F93CF93DF930E94AC1E0E94B41EFC
:103CC000C8EDD0E088818F77888388818068888379
:103CD00088818F7D888319BC1092D7021092D302FD
:103CE0001092D5021092D40200EE10E0F80180810B
:103CF0008B7F808388818160888342E060E080E000
:103D00000E94BA1DE1EEF0E080818E7F8083E2EEBA
:103D1000F0E0808181608083808188608083F80109
:103D200080818E7F8083888180618883DF91CF91BD
:103D30001F910F910895E8EDF0E080818F7E8083E0
:103D4000E7EDF0E080818160808384E082BF81E0E4
:103D50008093D6020C94581EE8EDF0E080818E7FAF
:103D600080831092E20008951092DA001092E10030
:103D700008951F920F920FB60F9211242F933F9325
:103D80004F935F936F937F938F939F93AF93BF9363
:103D9000EF93FF938091E10082FF0BC08091E200DE
:103DA00082FF07C08091E1008B7F8093E1000E9439
:103DB00023218091DA0080FF19C08091D80080FF14
:103DC00015C08091DA008E7F8093DA008091D9004F
:103DD00080FF96C080E189BD82E189BD09B400FE03
:103DE000FDCF81E08093D7020E94201B8091E100EB
:103DF00080FF19C08091E20080FF15C08091E20031
:103E00008E7F8093E2008091E20080618093E200E7
:103E10008091D80080628093D80019BC85E080939F
:103E2000D7020E94321B8091E10084FF2BC0809159
:103E3000E20084FF27C080E189BD82E189BD89B5A8
:103E4000982F917080FFFBCF8091D8008F7D809359
:103E5000D8008091E1008F7E8093E1008091E200A4
:103E60008F7E8093E2008091E20081608093E20087
:103E70008091D302882309F449C084E08093D7025B
:103E80000E94331B8091E10083FF29C08091E200F2
:103E900083FF25C08091E100877F8093E10082E06D
:103EA0008093D7021092D3028091E1008E7F80939D
:103EB000E1008091E2008E7F8093E2008091E20039
:103EC00080618093E20042E060E080E00E94BA1DE1
:103ED0008091F00088608093F0000E94311BFF9178
:103EE000EF91BF91AF919F918F917F916F915F9172
:103EF0004F913F912F910F900FBE0F901F901895EB
:103F000019BC1092D7020E942E1B70CF8091E30043
:103F100087FD93E09093D702B3CF1F920F920FB615
:103F20000F9211242F933F934F935F936F937F933F
:103F30008F939F93AF93BF93CF93DF93EF93FF93B1
:103F4000D091E900DF708091EC00C82FC17080FD36
:103F5000C0E81092E9008091F000877F8093F00024
:103F600078940E94D11F1092E9008091F00088603F
:103F70008093F000CD2BCF70C093E900FF91EF91BB
:103F8000DF91CF91BF91AF919F918F917F916F9171
:103F90005F914F913F912F910F900FBE0F901F9007
:103FA00018951F93CF93DF93CDB7DEB7AA970FB6BF
:103FB000F894DEBF0FBECDBF88ED92E02091F100F6
:103FC000FC012193CF01F2E0803E9F07B9F70E94E8
:103FD0003E1B8091E80083FF1EC18091D802909122
:103FE000D9029A3008F017C1E92FF0E0E352FE4DF4
:103FF0000C946521803899F0823809F00CC18091C9
:10400000DC028F70873008F006C18093E900809150
:10401000EB0085FB882780F91092E90006C08091AB
:10402000D4029091D502911182609091E800977F1F
:104030009093E8008093F1001092F1008091E800E5
:104040008E77E5C0882309F4D3C0823009F0E3C03D
:104050008091DA028111D6C08091DC028F702FEF3F
:10406000280F263008F0D7C08093E9002091EB009C
:1040700020FFC8C0933031F48091EB0080628093C0
:10408000EB00C0C09091EB0090619093EB0021E0B9
:1040900030E001C0220F8A95EAF72093EA001092DF
:1040A000EA008091EB008860EACF8111B4C01091E2
:1040B000DA021F778091E3008078812B8093E30000
:1040C0008091E800877F8093E8000E94EE1D809138
:1040D000E80080FFFCCF8091E30080688093E300DC
:1040E00082E0111183E08093D70295C0805882301E
:1040F00008F091C08091DA029091DB028C3D23E0C0
:104100009207A1F583E08A838AE289834FB7F89406
:10411000DE01139620E03EE051E2E32FF0E0509301
:104120005700E49120FF03C0E295EF703F5FEF700E
:104130008E2F90E0EA30C0F0C7968D939D932F5F4D
:10414000243159F74FBF8091E800877F8093E800C2
:104150006AE270E0CE0101960E94FD1C8091E800A9
:104160008B778093E80057C0C096E7CF6091DC0260
:104170007091DD02AE014F5F5F4F0E943E1CBC019B
:10418000892B09F448C09091E800977F9093E8004C
:1041900089819A810E945B1DE1CF8038E1F5809191
:1041A000E800877F8093E8008091D3028093F1003C
:1041B00045CF811130C09091DA02923060F5809144
:1041C000E800877F8093E8009093D3020E94EE1D61
:1041D0008091D302882311F084E005C08091E30030
:1041E00087FDFACF81E08093D7020E94341B13C071
:1041F0008091DA02813079F481E0933009F080E037
:104200008093D5021092E9008091E800877F809327
:10421000E8000E94EE1D8091E80083FF0AC08091B3
:10422000E800877F8093E8008091EB0080628093B4
:10423000EB00AA960FB6F894DEBF0FBECDBFDF919C
:10424000CF911F9108950895CF938091D70288232D
:10425000A1F0C091E900CF709091EC00892F81709E
:1042600090FD80E8C82B1092E9008091E80083FD62
:104270000E94D11FCF70C093E900CF9108950E9492
:104280003E1E1092D7020895E8EDF0E08081806133
:1042900080838AE18A95F1F700C08091D90081700E
:1042A000089597FB072E16F4009407D077FD09D0E8
:1042B0000E946B2107FC05D03EF4909581959F4F9D
:1042C0000895709561957F4F0895EE0FFF1F05903B
:1042D000F491E02D0994AA1BBB1B51E107C0AA1F52
:1042E000BB1FA617B70710F0A61BB70B881F991F97
:1042F0005A95A9F780959095BC01CD010895F9993B
:10430000FECF92BD81BDF89A992780B50895A8E1A6
:10431000B0E042E050E00C94B321262FF999FECF93
:1043200092BD81BDF89A019700B4021639F01FBA08
:1043300020BD0FB6F894FA9AF99A0FBE0895039625
:10434000272F0E948E210E948D21252F0E948E21D1
:10435000242F0C948E210196272F0E948E210C94DD
:104360008D21DC01CB01FC01F999FECF06C0F2BD25
:10437000E1BDF89A319600B40D9241505040B8F723
:104380000895F894FFCF56105610AE10AE100011DD
:104390001C11831083102711B311C211C2118C128A
:1043A0008C129512951297129512951295128C12E5
:1043B0008C129C12951295129C12FA1F22200B212E
:0E43C00022200B21552076200B21CD20D92064
:1043CE00F5F43534C69766949293F6F73133323658
:1043DE00000000000000012808641E140A321EB8F6
:1043EE000104B9010CBD018002941AF31AD21ACE3F
:1043FE001ACA1A01F5F43534C69766949293E20000
:10440E00E900EA00B500B600B700CD008301CC008C
:10441E008A0192019401210223022402250226021E
:10442E0027022A02B300B4006F007000818283E27B
:10443E0000E900EA00B500B600B700CD008301CC5C
:10444E00008A0192019401210223022402250226F0
:10445E000227022A02B300B4006F0070008182832B
:00000001FF
